:100000000C943A000C9457000C9457000C94570031
:100010000C9457000C9457000C9457000C94570004
:100020000C9457000C9457000C9457000C945700F4
:100030000C9457000C9457000C9457000C945700E4
:100040000C9457000C9457000C941C050C9457000A
:100050000C9457000C9408050C9457000C9457000E
:100060000C94F1000C9457006364696E6F707375A3
:1000700078585B0011241FBECFEFD8E0DEBFCDBFA4
:1000800012E0A0E0B1E0EEE4FFE102C005900D92C5
:10009000A037B107D9F723E0A0E7B2E001C01D9275
:1000A000AA30B207E1F70E9454060C94A50F0C94F5
:1000B000000080E480937C008FE880937A000895AC
:1000C000EAE7F0E0808180648083089585EA809388
:1000D000BC0080E090E005C00196803426E09207E5
:1000E00030F4209107012830B9F788EC089589ECA5
:1000F000089585E98093BC00089585EA8093BC004B
:1001000080E090E005C00196803426E0920730F44C
:10011000209107012031B9F788EC089589EC089502
:1001200085E88093BC0080E090E005C001968034B3
:1001300026E0920730F4209107012831B9F788ECC6
:10014000089589EC089585E88093BC0080E090E0F4
:1001500005C00196803426E0920730F42091070113
:100160002034B9F788EC089589EC089585E88093E8
:10017000BC0080E090E005C00196803426E0920744
:1001800030F4209107012832B9F788EC089589EC02
:100190000895882389F085EC8093BC0080E090E08E
:1001A00005C00196803426E09207B8F4209107013B
:1001B0002035B9F788EC089585E88093BC0080E08D
:1001C00090E005C00196803426E0920740F420912B
:1001D00007012835B9F788EC089589EC089589EC72
:1001E00008951F920F920FB60F9211248F93809152
:1001F000B900887F809307018F910F900FBE0F90F9
:100200001F9018959B01AC0160E074E284EF90E0D0
:100210000E94EC08DA01C9014097A109B109AC01BB
:10022000BD01769567955795479587B187B98AB18E
:100230008F7E8AB94093B80084E08093BC0088B177
:10024000806388B90895CF92DF92EF92FF920F9367
:100250001F93CF93182F062F6A0179010E94660021
:10026000C82F883C21F00E9479008C2F31C0110FDB
:100270001093BB000E949000C82F883C21F00E9480
:1002800079008C2F25C00093BB000E94B600C82FB8
:10029000883CB1F00E9479008C2F1AC0F601E00F63
:1002A000F11F80818093BB000E94B600C82F883C5C
:1002B00021F00E9479008C2F0BC00F5F1F4F02C0EE
:1002C00000E010E00E151F0548F30E94790088EC4D
:1002D000CF911F910F91FF90EF90DF90CF900895F5
:1002E000CF92DF92EF92FF920F931F93CF93DF9302
:1002F000D82FD62E7A0189010E946600C82F883C2B
:1003000021F00E9479008C2F5FC08D2F880F809381
:10031000BB000E949000C82F883C21F00E94790009
:100320008C2F52C0D092BB000E94B600C82F883CD0
:1003300021F00E9479008C2F47C00E947D00C82FB9
:10034000883C21F00E9479008C2F3EC08D2F90E0D8
:10035000880F991F81608093BB000E94A300C82F63
:10036000883CC1F00E9479008C2F2EC081E00E9451
:10037000C900C82F883C21F00E9479008C2F24C02E
:10038000F701EC0DFD1D8091BB0080838FEFC81A33
:10039000D80A02C0C12CD12CC8010197C816D906B1
:1003A00028F380E00E94C900C82FF701EC0DFD1D65
:1003B0008091BB008083C83C21F00E9479008C2F83
:1003C00003C00E94790088ECDF91CF911F910F91BB
:1003D000FF90EF90DF90CF900895CF92DF92EF9251
:1003E000FF920F931F93CF93C82ED92E7B018A01C2
:1003F0000E946600C82F883C21F00E9479008C2F53
:100400003DC080EA8093BB000E949000C82F883CCA
:1004100021F00E9479008C2F31C0D092BB000E9445
:10042000B600C82F883C21F00E9479008C2F26C08E
:10043000C092BB000E94B600C82F883CB9F00E9451
:1004400079008C2F1BC0F701EC0DFD1D808180937E
:10045000BB000E94B600C82F883C21F00E947900A2
:100460008C2F0CC08FEFC81AD80A02C0C12CD12C17
:10047000C016D10640F30E94790088ECCF911F91FD
:100480000F91FF90EF90DF90CF900895CF92DF9281
:10049000EF92FF920F931F93CF93DF93D82ED92F14
:1004A0007B018A010E946600C82F883C21F00E94CF
:1004B00079008C2F65C080EA8093BB000E94900079
:1004C000C82F883C21F00E9479008C2F59C0D0930E
:1004D000BB000E94B600C82F883C21F00E94790022
:1004E0008C2F4EC0D092BB000E94B600C82F883C13
:1004F00021F00E9479008C2F43C00E947D00C82FFC
:10050000883C21F00E9479008C2F3AC081EA8093C8
:10051000BB000E94A300C82F883CC1F00E94790054
:100520008C2F2EC081E00E94C900C82F883C21F08A
:100530000E9479008C2F24C0F701EC0DFD1D8091E5
:10054000BB0080838FEFC81AD80A02C0C12CD12CFF
:10055000C8010197C816D90628F380E00E94C90097
:10056000C82FF701EC0DFD1D8091BB008083C83CB6
:1005700021F00E9479008C2F03C00E94790088EC42
:10058000DF91CF911F910F91FF90EF90DF90CF906F
:100590000895CF93DF931F92CDB7DEB7198241E064
:1005A00050E0BE016F5F7F4F8FEF9FE00E944602D9
:1005B000883C11F4898101C084E00F90DF91CF91D4
:1005C0000895CF93DF931F92CDB7DEB78F5F8983F6
:1005D00041E050E0BE016F5F7F4F8FEF9FE00E94D0
:1005E000ED010F90DF91CF910895CF93DF931F928C
:1005F000CDB7DEB78150898341E050E0BE016F5F27
:100600007F4F8FEF9FE00E94ED010F90DF91CF9120
:100610000895CF93DF9300D000D0CDB7DEB7198215
:100620001A821B821C8241E050E0BE016F5F7F4F47
:100630008FEF9FE00E94ED010F900F900F900F90B1
:10064000DF91CF9108950F931F93CF93DF938C0188
:10065000C62F0E94C902D82F4C2F50E0B80120E1CC
:10066000829FC00111240E94ED01883C51F48BE46B
:100670009DE10197F1F700C000008D2F90E00E94EE
:10068000E102DF91CF911F910F91089540E150E079
:1006900020E1829FC00111240E944602089540E19A
:1006A00050E020E1829FC00111240E94ED010895D5
:1006B000DF92EF92FF920F931F93CF93DF93CDB70B
:1006C000DEB760970FB6F894DEBF0FBECDBFD82E51
:1006D00000E010E00F2EF8ECFF2EF02D3EC0BE0122
:1006E0006F5F7F4F802F0E944603F82E88ECF81230
:1006F00032C040E150E063E371E0CE0101960E9418
:100700002C09892B41F5FF24F394F00EBE016F5F95
:100710007F4F8F2D0E944603883C39F5BE016F5FE5
:100720007F4F802F0E944F03883CF9F48BE49DE1BA
:100730000197F1F700C0000063E371E08F2D0E9484
:100740004F03F82E98EC891310C08BE49DE10197BC
:10075000F1F700C000000F5F1F4F8D2D90E00817CC
:1007600019070CF4BCCF8F2D00C060960FB6F8941B
:10077000DEBF0FBECDBFDF91CF911F910F91FF90D4
:10078000EF90DF900895CF93DF93C82F0E94C902A6
:10079000D82F63E371E08C2F0E944F03883C51F403
:1007A0008D2F0E945803883C31F48D2F90E00E94D9
:1007B000F50201C080E0DF91CF91089526E732E095
:1007C0003F932F9325E732E03F932F9324E732E0C6
:1007D0003F932F9323E732E03F932F9322E732E0BA
:1007E0003F932F9321E732E03F932F9320E732E0AE
:1007F0003F932F9324E431E03F932F939F938F9364
:100800000E94A90927E030E040E752E060E088E676
:100810000E9423012DB73EB72E5E3F4F0FB6F894CE
:100820003EBF0FBE2DBF089527E030E040E051E00D
:1008300060E088E60E942301089527E030E0AC01E3
:1008400060E088E60E9470010895EF92FF921F9386
:10085000CF93DF937C010E94C902182FC0E0D0E043
:100860000FC06FE772E08C2F0E94460340E150E01A
:10087000B7018FE792E00E942C09892B41F0219665
:10088000812F90E0C817D90764F380E001C081E0B0
:10089000DF91CF911F91FF90EF90089595B19E7FCA
:1008A00095B99BB19F70282F207F922B9BB995B152
:1008B000926095B9E9EFF0E03197F1F700C00000E0
:1008C00095B19D7F95B9E7EAF1E63197F1F700C060
:1008D00000002BB1F0E18F9FC0011124922F9F7077
:1008E000892B8BB985B1826085B989EF90E001973A
:1008F000F1F700C0000085B18D7F85B9E7EAF1E628
:100900003197F1F700C00000089595B1916095B955
:10091000982F907F9BB995B1926095B9E9EFF0E07F
:100920003197F1F700C0000095B19D7F95B9E7EAD6
:10093000F1E63197F1F700C00000F0E18F9FC001B0
:1009400011248BB985B1826085B989EF90E0019758
:10095000F1F700C0000085B18D7F85B9E7EAF1E6C7
:100960003197F1F700C00000089584B1836084B925
:100970008AB1806F8AB987B1826087B983ED90E3CD
:100980000197F1F700C0000081E00E944E0482E070
:100990000E944E0488E20E944E048CE00E944E04A5
:1009A00086E00E944E04089581E00E944E0482E099
:1009B0000E944E040895EF92FF921F93CF93DF930E
:1009C0007C01162FC0E0D0E007C0F701EC0FFD1F3F
:1009D00080810E9485042196812F90E0C817D90755
:1009E000A4F3DF91CF911F91FF90EF900895CF93E3
:1009F000C82F8A3019F48DE00E94F7048091C0005E
:100A000085FFFCCFC093C60080E090E0CF910895B1
:100A10001F920F920FB60F9211248F939F93809184
:100A20007800909179008093AA029F918F910F9006
:100A30000FBE0F901F9018951F920F920FB60F9236
:100A400011242F938F939F93AF93BF93EF93FF93B3
:100A50008091C6008D3081F080917C0290917D0262
:100A60002091C600FC01EA56FD4F20830196909329
:100A70007D0280937C0226C0E0917C02F0917D0291
:100A80008091C600EA56FD4F808380E090E009C067
:100A9000FC01EA56FD4F2081FC01E651FD4F208309
:100AA000019684319105A0F381E080937B0210923E
:100AB0007D0210927C0284E1E6E9F2E0DF011D9202
:100AC0008A95E9F7FF91EF91BF91AF919F918F9137
:100AD0002F910F900FBE0F901F9018958091AA0232
:100AE000811126C080917A02882309F483C0EFE83F
:100AF000F2E080818051808380E090E012C0FC01B0
:100B0000E157FD4F20812A3558F029E5FC01E157D6
:100B1000FD4F2083FC01E057FD4F208121502083B1
:100B20000196823091055CF381E08093770262C088
:100B300091EA980F9B3028F580917A02882309F476
:100B400059C0EFE8F2E08081805F808380E090E030
:100B500011C0FC01E157FD4F2081293550F0FC0107
:100B6000E157FD4F1082FC01E057FD4F20812F5FC0
:100B7000208301968230910564F381E080937702AF
:100B800039C098E8980F953128F580917702811146
:100B900031C080917A02811110C087E191E00E94FA
:100BA0002504882351F08FE892E00E941D041092E2
:100BB000790281E080937A0209C00E94D4041092E5
:100BC000780281E08093790210927A0281E080932A
:100BD000770210C08159803158F4809177028111D9
:100BE00009C09091160181E089278093160102C007
:100BF0001092770280917A02882309F454C08BE422
:100C00009DE10197F1F700C0000080911601882353
:100C1000F1F0EFE8F2E02081918182811F922F9321
:100C20001F929F931F928F938AE591E09F938F93DA
:100C300087E191E09F938F930E9487098DB79EB7BC
:100C40000A960FB6F8949EBF0FBE8DBF1DC0EFE889
:100C5000F2E02081918182811F922F931F929F93B6
:100C60001F928F938CE691E09F938F9387E191E0A1
:100C70009F938F930E9487098DB79EB70A960FB6F0
:100C8000F8949EBF0FBE8DBF0E94D404E7E1F1E04F
:100C900001900020E9F73197BF016751714087E16A
:100CA00091E00E94DB040895CF93DF93CDB7DEB7C8
:100CB00060970FB6F894DEBF0FBECDBF88E091E01D
:100CC000909307038093060387B187B90E94590068
:100CD0000E94950860EA76E881E090E00E940201B7
:100CE0000E94B5040E94190889E190E00E94B908A9
:100CF0000E94D40478940E94140480917B02811194
:100D00000BC0B9C0FC01E251FD4F2081FC01E5554B
:100D1000FD4F2083019602C080E090E08031910574
:100D20008CF38091EB02813429F58091EC028535BA
:100D300009F50E94D404EBEAF2E001900020E9F703
:100D40003197EB5AF2403597A8F060E18BEA92E0D8
:100D50000E942303ABE4BDE11197F1F700C000004E
:100D6000883C41F48EE791E09F938F930E94410964
:100D70000F900F908091EB028335B1F48091EC02DB
:100D8000843591F4EBEAF2E001900020E9F7EA5BA8
:100D9000F24051F48BEA92E00E94DE03883C21F499
:100DA0008EE891E00E9457098091EB02843409F0AB
:100DB0003FC08091EC028535D9F58BEA92E00E9424
:100DC0000E090E94C303883C89F48BEA92E00E94DA
:100DD0000E099F938F938DEA91E09F938F930E94CA
:100DE00041090F900F900F900F9008C082EC91E096
:100DF0009F938F930E9441090F900F900E94C90208
:100E0000D82E00E010E00FC0FE0131967F01BF0137
:100E1000802F0E944603FF92EF920E9441090F5FCC
:100E20001F4F0F900F908D2D90E00817190764F356
:100E30008091EB028434E9F48091EC028134C9F4AE
:100E40008091ED028535A9F40E940903883C49F49C
:100E50008CED91E09F938F930E9441090F900F902A
:100E600008C087EC91E09F938F930E9441090F90F7
:100E70000F9010927B020E9460000E942C088093C9
:100E8000FE029091FE028091FF02981709F4A1C022
:100E90008091FE02833209F46FC08A3219F0811109
:100EA0007AC076C00E94D40487E191E00E94CB080A
:100EB00087E191E00E942504882341F10E949C086B
:100EC00010927E0283EE92E00E941D04E3EEF2E0B7
:100ED0005481458136812081918182811F925F9367
:100EE0001F924F931F923F931F922F931F929F9396
:100EF0001F928F9382EF91E09F938F930E944109FD
:100F00000FB6F894DEBF0FBECDBF2CC080917E021D
:100F10008F5F80937E02833029F50E94A40883EEC0
:100F200092E00E941D04E3EEF2E054814581368197
:100F30002081918182811F925F931F924F931F9214
:100F40003F931F922F931F929F931F928F9388E23C
:100F500092E09F938F930E9441090FB6F894DEBFF1
:100F60000FBECDBF80E1E7E1F1E0DF011D928A9580
:100F7000E9F7109278022DC00E94D40480E1E7E1E5
:100F8000F1E0DF011D928A95E9F71092780221C005
:100F90001092FF021EC0E7E1F1E001900020E9F7A6
:100FA0003197E751F1407197A0F4E091780281E028
:100FB0008E0F80937802F0E08091FE02E95EFE4F92
:100FC00080838091FE020E9485048091FE028093BE
:100FD000FF020E946E0580917902882301F183EE61
:100FE00092E00E941D04E3EEF2E001900020E9F798
:100FF0003197AF01435E52406FE872E083EE92E0BA
:101000000E942C09892B59F480911601882319F02C
:101010000E94AB0802C00E94B20810927902BFEB96
:10102000E7E2F9E0B150E040F040E1F700C0000035
:1010300064CE8AB18C608AB984B1886184B987B181
:101040008D7F87B987B18B7F87B987B1877F87B954
:1010500088B18E6088B9089540E050E060C04230A9
:1010600051057CF42BB1BA016E5F7F4F81E090E0B7
:1010700002C0880F991F6A95E2F7809582238BB989
:101080000EC025B1BA016F5F7F4F81E090E002C0D2
:10109000880F991F6A95E2F78095822385B920E031
:1010A00030E01AC086B1B9016F5F7F4F90E0062E25
:1010B00002C0959587950A94E2F780FD0CC0CA019D
:1010C000880F991F480F591F495D5E4FFA01E20FC3
:1010D000F31F808108959B01233031051CF34230BA
:1010E000510574F42BB1BA016E5F7F4F81E090E03F
:1010F00002C0880F991F6A95E2F7822B8BB90DC049
:1011000025B1BA016F5F7F4F81E090E002C0880F88
:10111000991F6A95E2F7822B85B94F5F5F4F443084
:1011200051050CF49CCF80E0089584B1826084B9AD
:1011300084B1806284B9089585B18F7D85B995B1F8
:1011400082E0892785B9089585B18D7F85B985B1FC
:10115000806285B9089585B18F7D85B985B182603A
:1011600085B9089585B18F7D85B985B18D7F85B9A4
:1011700008959093C5008093C40088E98093C100CE
:1011800086E08093C20008959091C00095FFFCCF47
:101190008093C60008950F931F93CF93DF938C0124
:1011A000C0E0D0E007C0F801EC0FFD1F80810E9475
:1011B000C4082196F80101900020E9F73197E01B5F
:1011C000F10BCE17DF0778F38AE00E94C408DF91A5
:1011D000CF911F910F910895A1E21A2EAA1BBB1B5C
:1011E000FD010DC0AA1FBB1FEE1FFF1FA217B307F3
:1011F000E407F50720F0A21BB30BE40BF50B661F09
:10120000771F881F991F1A9469F7609570958095CC
:1012100090959B01AC01BD01CF010895FC01882789
:101220009927E89421912032E9F3293010F02E30EB
:10123000C8F32B3241F02D3239F4689404C00E9477
:101240003909820F911D219120532A30C0F31EF4D9
:10125000909581959F4F0895FB01DC0104C08D910D
:101260000190801921F441505040C8F7881B990B18
:1012700008957AE0979F902D879F802D910D1124DE
:101280000895A0E0B0E0E7E4F9E00C947E0FAE0131
:101290004B5F5F4FFA0161917191AF01809106033D
:1012A000909107030E94C209E2E00C949A0F0F93F9
:1012B0001F93CF93DF93E0910603F09107032381FF
:1012C00021FF1BC08C01D0E0C0E0F80181918F01AB
:1012D0006091060370910703DB011896ED91FC9174
:1012E0001997882331F00995892B79F3DFEFCFEF38
:1012F000ECCF8AE00995892B19F08FEF9FEF02C0A0
:101300008D2F9C2FDF91CF911F910F910895AEE00B
:10131000B0E0EDE8F9E00C947C0F0D891E8986E0C1
:101320008C831A8309838FEF9FE79E838D83AE01A1
:10133000475E5F4F6F89788DCE0101960E94C2098A
:10134000EF81F885E00FF11F10822E96E4E00C94F7
:10135000980FAEE0B0E0EFEAF9E00C947E0F85E084
:101360008C838B899C899A838983AE01495E5F4F08
:101370006D897E89CE0101960E943F0D2E96E2E096
:101380000C949A0FABE0B0E0E8ECF9E00C946E0F2F
:101390006C017B018A01FC0117821682838181FF27
:1013A000CCC1CE0101963C01F6019381F70193FD7A
:1013B000859193FF81917F01882309F4BAC1853219
:1013C00039F493FD859193FF81917F01853229F452
:1013D000B60190E00E94B80EE7CF912C212C312C61
:1013E000FFE1F315D8F08B3279F038F4803279F0E0
:1013F0008332A1F4232D20611DC08D3261F0803332
:1014000069F4232D216016C0832D8260382EE32DD0
:10141000E4603E2E2AC0F32DF8601DC037FC2DC0BD
:1014200020ED280F2A3040F08E32B9F436FC81C10D
:10143000232D2064322E19C036FE06C08AE0989E05
:10144000200D1124922E11C0EAE02E9E200D1124B1
:10145000222EF32DF0623F2E08C08C3621F4832D0E
:101460008068382E02C0883641F4F70193FD8591DB
:1014700093FF81917F018111B3CF982F9F7D955468
:10148000933028F40C5F1F4F9FE399830DC0833680
:1014900031F0833771F0833509F059C021C0F8016C
:1014A000808189830E5F1F4F88248394912C530180
:1014B00013C02801F2E04F0E511CF801A080B1804A
:1014C00036FE03C0692D70E002C06FEF7FEFC501EB
:1014D0000E946F0E4C018201F32DFF773F2E16C044
:1014E000280122E0420E511CF801A080B18036FE96
:1014F00003C0692D70E002C06FEF7FEFC5010E944D
:10150000640E4C01F32DF0683F2E820133FC1BC0AA
:10151000822D90E088169906B0F4B60180E290E042
:101520000E94B80E2A94F4CFF50137FC859137FE5E
:1015300081915F01B60190E00E94B80E21102A94BB
:1015400021E0821A91088114910471F7E8C0843671
:1015500011F0893641F5F80137FE07C060817181CD
:10156000828193810C5F1F4F08C060817181072EBB
:10157000000C880B990B0E5F1F4FF32DFF763F2E4B
:1015800097FF09C090958095709561957F4F8F4F1B
:101590009F4FF0683F2E2AE030E0A3010E940D0F1C
:1015A000882E861845C0853731F4232D2F7EB22E24
:1015B0002AE030E025C0932D997FB92E8F36C1F0F7
:1015C00018F4883579F0B5C0803719F0883721F0E4
:1015D000B0C0E92FE061BE2EB4FE0DC0FB2DF4605B
:1015E000BF2E09C034FE0AC0292F2660B22E06C0C5
:1015F00028E030E005C020E130E002C020E132E028
:10160000F801B7FE07C060817181828193810C5F10
:101610001F4F06C06081718180E090E00E5F1F4F18
:10162000A3010E940D0F882E8618FB2DFF773F2EF9
:1016300036FE0DC0232D2E7FA22E891458F434FEC1
:101640000BC032FC09C0832D8E7EA82E05C0B82C9D
:10165000A32C03C0B82C01C0B92CA4FE0FC0FE01FE
:10166000E80DF11D8081803321F49A2D997EA92EF9
:1016700009C0A2FE06C0B394B39404C08A2D867834
:1016800009F0B394A3FC11C0A0FE06C0B21488F404
:10169000280C922C9B180EC0B21460F4B60180E2A4
:1016A00090E00E94B80EB394F7CFB21418F42B1840
:1016B00002C0982C212CA4FE10C0B60180E390E05B
:1016C0000E94B80EA2FE17C0A1FC03C088E790E0FC
:1016D00002C088E590E0B6010CC08A2D867859F0EA
:1016E000A1FE02C08BE201C080E2A7FC8DE2B60140
:1016F00090E00E94B80E891438F4B60180E390E0BF
:101700000E94B80E9A94F7CF8A94F301E80DF11D68
:101710008081B60190E00E94B80E8110F5CF2220A2
:1017200009F442CEB60180E290E00E94B80E2A94FD
:10173000F6CFF6018681978102C08FEF9FEF2B963F
:10174000E2E10C948A0F20FD09C0FC0123FD05C0D5
:1017500022FF02C07383628351834083089544FD56
:1017600017C046FD17C0AB01BC01DA01FB01AA0F8F
:10177000BB1FEE1FFF1F1094D1F74A0F5B1F6E1F98
:101780007F1FCB01BA01660F771F881F991F09C001
:1017900033E001C034E0660F771F881F991F315076
:1017A000D1F7620F711D811D911D08950F931F9335
:1017B000CF93DF938C01C8010E947A0EEC0197FD54
:1017C00008C00E94500E892BB1F7B801CE010E94CB
:1017D000F40ECE01DF91CF911F910F9108958F925A
:1017E0009F92AF92BF92EF92FF920F931F93CF936E
:1017F000DF938C01D62F7A01B22E0E947A0E9C01C3
:1018000033272B32310531F02D32310561F48B2D28
:101810008068B82ED15011F480E068C0C8010E94E1
:101820007A0E97FDF9CFCB2DCD7F2B2D207309F5A7
:101830008033F9F4AA24AA94AD0E09F443C0C80178
:101840000E947A0E97FD3EC09C012F7D33272835DC
:10185000310549F4C264D250A9F1C8010E947A0E40
:1018600097FF07C02FC0B6FE02C0C26001C0C261B0
:10187000DA2D812C912C540120ED280F283080F096
:10188000C4FF04C0B8010E94F40E19C02A3040F011
:10189000C6FFF8CF2F7D3FEE320F363098F7275036
:1018A0004C2FC501B4010E94AF0B4B015C01C2601B
:1018B000D15059F0C8010E947A0E97FFDDCFC1FDCB
:1018C00004C0AACF812C912C5401C7FF08C0B0944A
:1018D000A09490948094811C911CA11CB11C2C2F6D
:1018E000B501A401C7010E94A30B81E0DF91CF9154
:1018F0001F910F91FF90EF90BF90AF909F908F90AE
:101900000895A0E2B0E0E7E8FCE00C94710F5C0100
:10191000962E7A01F9018E010F5F1F4F680180E258
:10192000D8011D928A95E9F7D50113968C9080E035
:1019300090E0612C712C30E061E070E083FC259137
:1019400083FE21918F01522E211103C080E090E08F
:1019500092C02E3511F4009751F1432F50E04817F3
:1019600059073CF42D3559F12D3219F4772009F13E
:1019700003C0772009F46AC0452D469546954695E3
:10198000D601A40FB11D452D47708B0102C0000F79
:10199000111F4A95E2F7A8015C91452B4C93651401
:1019A00059F0561410F45394E7CF5A94E5CF31E030
:1019B00004C07724739401C0712C0196BFCF7720A7
:1019C00019F08E8180628E83311103C08824839444
:1019D00017C0F6019E012F5D3F4F80818095819356
:1019E0002E173F07D1F7F2CFE114F10429F0D70108
:1019F0008C93F70131967F019A94812C9920F9F00C
:101A0000C5010E947A0E97FD18C0FC01FF2723E054
:101A1000F595E7952A95E1F7EC0DFD1D208130E065
:101A2000AC014770552702C0359527954A95E2F7D6
:101A300020FDDACFB5010E94F40E811087CFE114AA
:101A4000F10411F0D7011C92C80115C0422F469530
:101A500046954695D601A40FB11D422F47708B01C4
:101A600002C0000F111F4A95E2F7A8015C91452BB7
:101A70004C93622EA2CFA096EFE00C948D0FA0E0C5
:101A8000B0E0E5E4FDE00C94710F6C01EB015A014C
:101A9000FC0117821682512CF601E380FE01E3FC63
:101AA0008591E3FE8191182FEF01882309F4EEC0A0
:101AB00090E00E94500E892B21F0C6010E94D60BA7
:101AC000EBCF153241F4FE01E3FC1591E3FE1191D9
:101AD000EF01153281F4C6010E947A0E97FDD4C041
:101AE000412F50E09C01332724173507A9F2B60196
:101AF0000E94F40ECBC01A3239F4E3FC1591E3FED8
:101B00001191EF0101E001C000E0F12C20ED210F67
:101B10002A3080F402606F2D70E080E090E040E2B7
:101B20000E94AF0BF62EFE01E3FC1591E3FE11912E
:101B3000EF01ECCF01FF03C0F11003C0A7C0FF24E9
:101B4000FA94183619F01C3651F010C0FE01E3FC6F
:101B50001591E3FE1191EF01183641F4086004601D
:101B6000FE01E3FC1591E3FE1191EF01112309F44D
:101B70008DC0612F70E088E690E00E94590E892B9D
:101B800009F484C000FD07C0F50180809180C50183
:101B900002965C0102C0812C912C1E3651F4F60194
:101BA0004681578160E070E0202FC4010E94A30BA2
:101BB00073CF1336A9F401FD02C0FF24F394C601CC
:101BC0000E947A0E97FD60C08114910429F0F401FF
:101BD0008083C40101964C01FA94F110F0CF50C0FB
:101BE0001B3559F49E01A4016F2DC6010E94810C82
:101BF000EC01892B09F044C03EC0C6010E94D60BFF
:101C000097FD42C01F3661F128F4143639F11936B8
:101C100051F128C0133771F0153701F123C0811439
:101C2000910429F0F4016082C40101964C01FA94F8
:101C3000FF2071F0C6010E947A0E3C0197FD08C09A
:101C40000E94500E892B59F3B601C3010E94F40E75
:101C500081149104A9F0F401108212C0006203C043
:101C6000006101C00064202FA4016F2DC6010E94F5
:101C7000EF0B811105C0F6018381807329F406C042
:101C800000FD0ACF539408CF552019F0852D90E020
:101C900002C08FEF9FEFCDB7DEB7EFE00C948D0F52
:101CA00091110C946B0F803219F089508550C8F750
:101CB0000895FC010590061621F00020D9F7C00117
:101CC00008953197CF010895FC010590615070404F
:101CD0000110D8F7809590958E0F9F1F0895FC01F5
:101CE0006150704001900110D8F7809590958E0F4B
:101CF0009F1F0895CF93DF93EC012B8120FF33C00A
:101D000026FF0AC02F7B2B838E819F8101969F83A4
:101D10008E838A8190E029C022FF0FC0E881F9817B
:101D20008081082E000C990B009719F420622B83F8
:101D30001AC03196F983E8830EC0EA85FB850995C0
:101D400097FF09C02B81019611F080E201C080E16C
:101D5000822B8B8308C02E813F812F5F3F4F3F83B3
:101D60002E83992702C08FEF9FEFDF91CF910895C7
:101D70000F931F93CF93DF93FB01238121FD03C0BA
:101D80008FEF9FEF2CC022FF16C046815781248120
:101D900035814217530744F4A081B1819D012F5F23
:101DA0003F4F318320838C93268137812F5F3F4FB4
:101DB0003783268314C08B01EC01FB010084F1857D
:101DC000E02D0995892BE1F6D80116968D919C910D
:101DD0001797019617969C938E931697CE01DF91D5
:101DE000CF911F910F910895FB01238120FF12C015
:101DF00026FD10C08F3F3FEF930761F082832F7D58
:101E0000206423832681378121503109378326833B
:101E1000992708958FEF9FEF0895FA01AA27283098
:101E200051F1203181F1E8946F936E7F6E5F7F4FA7
:101E30008F4F9F4FAF4FB1E03ED0B4E03CD0670F23
:101E4000781F891F9A1FA11D680F791F8A1F911D76
:101E5000A11D6A0F711D811D911DA11D20D009F4C6
:101E600068943F912AE0269F11243019305D319308
:101E7000DEF6CF010895462F4770405D4193B3E0F1
:101E80000FD0C9F7F6CF462F4F70405D4A3318F098
:101E9000495D31FD4052419302D0A9F7EACFB4E049
:101EA000A6959795879577956795BA95C9F7009701
:101EB0006105710508959B01AC010A2E06945795A2
:101EC000479537952795BA95C9F7620F731F841FF9
:101ED000951FA01D08959927882708952F923F9256
:101EE0004F925F926F927F928F929F92AF92BF922A
:101EF000CF92DF92EF92FF920F931F93CF93DF93D6
:101F0000CDB7DEB7CA1BDB0B0FB6F894DEBF0FBE32
:101F1000CDBF09942A88398848885F846E847D847F
:101F20008C849B84AA84B984C884DF80EE80FD8081
:101F30000C811B81AA81B981CE0FD11D0FB6F894F7
:0E1F4000DEBF0FBECDBFED010895F894FFCFB8
:101F4E0050592307290323F8000000020000000067
:101F5E00F704000000000135320000000000000010
:101F6E000000000000000031323334353637383986
:101F7E002A30234141414141414141414141414189
:101F8E004141410025327825327825327825327844
:101F9E00253278253278253278004C3A2025303299
:101FAE00783A253032783A2530327800553A202565
:101FBE003032783A253032783A25303278004C4F2C
:101FCE00473A2055534552204144444544004C4F16
:101FDE00473A2054494D45204348414E47454420F9
:101FEE005355434345535346554C4C59004C4F475C
:101FFE003A20555345522025642044454C455445BE
:10200E0044004C4F473A20534F4D455448494E4794
:10201E002057454E542057524F4E47004C4F473A8B
:10202E0020414C4C20444154412044454C4554459C
:10203E004400253032783A253032783A25303278DD
:10204E00203230253032782F253032782F2530321D
:10205E0078204C4F473A2041434345535320475233
:10206E0041544E4544200A00253032783A2530320C
:10207E00783A25303278203230253032782F25309C
:10208E0032782F25303278204C4F473A2057524F16
:10209E004E472050415353574F5244202D20414C10
:1020AE0041524D20545249474745524544200A005B
:00000001FF
